:100000000C945D000C9432020C940B020C9485004D
:100010000C9485000C9485000C9485000C9485004C
:100020000C9485000C9485000C9485000C9485003C
:100030000C9485000C9485000C9485000C9485002C
:100040000C94C1010C9485000C947F020C9459020D
:100050000C9485000C9485000C9485000C9485000C
:100060000C9485000C9485000000000024002700FB
:100070002A0000000000250028002B0004040404CE
:100080000404040402020202020203030303030342
:10009000010204081020408001020408102001021F
:1000A00004081020000000080002010000030407FB
:1000B0000000000000000000740411241FBECFEFF8
:1000C000D8E0DEBFCDBF11E0A0E0B1E0E6E9F9E0A5
:1000D00002C005900D92AA31B107D9F721E0AAE13B
:1000E000B1E001C01D92A33CB207E1F710E0CDE5FD
:1000F000D0E004C02197FE010E94C304CC35D10793
:10010000C9F70E94B1020C94C9040C9400003FB7D7
:10011000F8948091BF019091C001A091C101B0916C
:10012000C20126B5A89B05C02F3F19F00196A11D5D
:10013000B11D3FBFBA2FA92F982F8827BC01CD0131
:10014000620F711D811D911D42E0660F771F881F90
:10015000991F4A95D1F708950895AF92BF92CF9213
:10016000DF92EF92FF920F931F93CF93DF936C0177
:100170007B018B01040F151FEB015E01AE18BF0858
:10018000C017D10759F06991D601ED91FC9101900A
:10019000F081E02DC6010995892B79F7C501DF9122
:1001A000CF911F910F91FF90EF90DF90CF90BF9074
:1001B000AF9008958091B90191E089278093B901AA
:1001C0000895FC01538D448D252F30E0842F90E05D
:1001D000821B930B541710F0CF9608950197089542
:1001E000FC01918D828D981761F0A28DAE0FBF2F0B
:1001F000B11D5D968C91928D9F5F9F73928F90E061
:1002000008958FEF9FEF0895FC01918D828D9817CF
:1002100031F0828DE80FF11D858D90E008958FEF0C
:100220009FEF0895FC01918D228D892F90E0805CD5
:100230009F4F821B91098F73992708958AE191E05E
:100240000E94120121E0892B09F420E0822F0895F9
:1002500080E090E0892B29F00E941E0181110C940E
:1002600000000895FC01A48DA80FB92FB11DA35A59
:10027000BF4F2C91848D90E001968F739927848FC6
:10028000A689B7892C93A089B1898C9183708064E9
:100290008C93938D848D981306C00288F389E02D8A
:1002A00080818F7D80830895EF92FF920F931F933B
:1002B000CF93DF93EC0181E0888F9B8D8C8D981319
:1002C0001AC0E889F989808185FF15C09FB7F89425
:1002D000EE89FF896083E889F98980818370806471
:1002E00080839FBF81E090E0DF91CF911F910F91BC
:1002F000FF90EF900895F62E0B8D10E00F5F1F4FCB
:100300000F731127E02E8C8D8E110CC00FB607FCD9
:10031000FACFE889F989808185FFF5CFCE010E9467
:100320003201F1CFEB8DEC0FFD2FF11DE35AFF4FA2
:10033000F0829FB7F8940B8FEA89FB8980818062F5
:10034000CFCFCF93DF93EC01888D8823B9F0AA89B2
:10035000BB89E889F9898C9185FD03C0808186FD80
:100360000DC00FB607FCF7CF8C9185FFF2CF8081CF
:1003700085FFEDCFCE010E943201E9CFDF91CF9111
:1003800008951F920F920FB60F9211242F933F934F
:100390008F939F93AF93BF938091BB019091BC01CA
:1003A000A091BD01B091BE013091BA0123E0230FAD
:1003B0002D3758F50196A11DB11D2093BA018093E8
:1003C000BB019093BC01A093BD01B093BE0180918D
:1003D000BF019091C001A091C101B091C2010196ED
:1003E000A11DB11D8093BF019093C001A093C101D5
:1003F000B093C201BF91AF919F918F913F912F9187
:100400000F900FBE0F901F90189526E8230F0296AD
:10041000A11DB11DD2CF1F920F920FB60F921124C2
:100420002F933F934F935F936F937F938F939F93FC
:10043000AF93BF93EF93FF93E0910201F09103011B
:100440000995FF91EF91BF91AF919F918F917F910E
:100450006F915F914F913F912F910F900FBE0F9031
:100460001F9018951F920F920FB60F9211242F9381
:100470003F934F935F936F937F938F939F93AF932C
:10048000BF93EF93FF93E0910001F0910101099573
:10049000FF91EF91BF91AF919F918F917F916F915C
:1004A0005F914F913F912F910F900FBE0F901F9032
:1004B00018951F920F920FB60F9211242F933F930E
:1004C0004F935F936F937F938F939F93AF93BF935C
:1004D000EF93FF938AE191E00E943201FF91EF9147
:1004E000BF91AF919F918F917F916F915F914F914C
:1004F0003F912F910F900FBE0F901F9018951F9254
:100500000F920FB60F9211242F938F939F93EF9317
:10051000FF93E0912A01F0912B018081E09130015D
:10052000F091310182FD1BC09081809133018F5F7A
:100530008F7320913401821741F0E0913301F0E094
:10054000E65EFE4F958F80933301FF91EF919F916F
:100550008F912F910F900FBE0F901F901895808153
:10056000F4CFCF93DF93CDB7DEB7A1970FB6F89452
:10057000DEBF0FBECDBF789484B5826084BD84B5E4
:10058000816084BD85B5826085BD85B5816085BD8E
:1005900080916E00816080936E0010928100809146
:1005A00081008260809381008091810081608093CE
:1005B0008100809180008160809380008091B100F3
:1005C00084608093B1008091B00081608093B0001E
:1005D00080917A00846080937A0080917A008260B2
:1005E00080937A0080917A00816080937A00809174
:1005F0007A00806880937A001092C100E0912A010D
:10060000F0912B0182E08083E0912601F091270197
:100610001082E0912801F09129018FEC80831092E3
:100620003201E0912E01F0912F0186E08083E0916C
:100630002C01F0912D01808180618083E0912C015B
:10064000F0912D01808188608083E0912C01F091F0
:100650002D01808180688083E0912C01F0912D0133
:1006600080818F7D8083E3E9F0E02491EFE7F0E083
:1006700084918823C9F090E0880F991FFC01E85904
:10068000FF4F45915491FC01EE58FF4FA591B49155
:100690009FB7F894FA013081822F8095832380835D
:1006A000EC91E22BEC939FBFE6E9F0E0249142E865
:1006B000242E40E0342EF1018491882399F090E0BB
:1006C000880F991FFC01E859FF4FA591B491FC01D7
:1006D000EE58FF4F859194918FB7F8949C91292BF8
:1006E0002C938FBF2AED30E0309303012093020159
:1006F000809169008C6080936900E99A30930301CE
:100700002093020180916900837F88608093690053
:10071000E99A2AE0422E512C612C712C00E010E065
:100720008091B901882349F08091B7019091B80177
:1007300001969093B8018093B701C090B701D09013
:10074000B8010D2C000CEE08FF08F7FE92C06DE218
:100750008AE191E00E94540122273327A9012C1934
:100760003D094E095F0919A2CE0181967C01CA019B
:10077000B901A30192010E94A104605DF701629397
:100780007F01211531054105510589F7E114F10477
:1007900061F001900020E9F73197AF014E195F0930
:1007A000B7018AE191E00E94AD0042E050E066E1CD
:1007B00071E08AE191E00E94AD00EAEAF0E09491F4
:1007C000E6E9F0E08491F1013491332301F12091C5
:1007D000B901992359F0933009F46CC008F05FC057
:1007E000913009F46DC0923009F46EC0E32FF0E04F
:1007F000EE0FFF1FEE58FF4FA591B4919FB7F894ED
:1008000021116FC02C91809582238C939FBF1092F1
:10081000B9010E9487006B017C0182E3882E912C34
:10082000A12CB12C0E9487006C197D098E099F09AB
:10083000683E734081059105A8F3F1E08F1A910895
:10084000A108B10828EEC20E23E0D21EE11CF11C63
:1008500081149104A104B10429F70115110509F4CB
:100860005FCF0E941E01882309F45ACF0E94000026
:1008700057CFA701960119A2CE0181967C01CA012A
:10088000B901A30192010E94A104605DF701629386
:100890007F01211531054105510589F777CF973043
:1008A000B1F09830D1F0943009F0A0CF9091800051
:1008B0009F7D03C0909180009F779093800096CF9A
:1008C00094B59F7794BD92CF94B59F7DFBCF9091C7
:1008D000B0009F779093B00089CF9091B0009F7D3A
:1008E000F9CF2C91822B91CFEAE1F1E013821282B1
:1008F00088EE93E0A0E0B0E084839583A683B7837D
:1009000088E091E09183808385EC90E095878487EF
:1009100084EC90E09787868780EC90E0918B808BC9
:1009200081EC90E0938B828B82EC90E0958B848BB2
:1009300086EC90E0978B868B118E128E138E148E20
:100940000895A1E21A2EAA1BBB1BFD010DC0AA1F10
:10095000BB1FEE1FFF1FA217B307E407F50720F028
:10096000A21BB30BE40BF50B661F771F881F991FA3
:100970001A9469F760957095809590959B01AC01EC
:10098000BD01CF010895EE0FFF1F0590F491E02DFA
:060990000994F894FFCF6A
:10099600AC00AC00000000005401AD00E100A10174
:0A09A6001201F00004010D0A000028
:00000001FF
