:100000000C9462000C948A000C948A000C948A0070
:100010000C948A000C948A000C948A000C948A0038
:100020000C948A000C948A000C948A000C948A0028
:100030000C948A000C948A000C948A000C948A0018
:100040000C9452050C948A000C94C2050C949C05E7
:100050000C948A000C948A000C948A000C948A00F8
:100060000C9424040C948A00000000002400270053
:100070002A000000000023002600290000000000E4
:10008000250028002B0004040404040404040202D4
:100090000202020203030303030301020408102007
:1000A0004080010204081020010204081020000012
:1000B0000008000201000003040700000000000027
:1000C0000000F40511241FBECFEFD8E0DEBFCDBF86
:1000D00011E0A0E0B1E0E2E8F0E102C005900D928D
:1000E000A834B107D9F722E0A8E4B1E001C01D921D
:1000F000AE3BB207E1F710E0C2E6D0E004C02197C2
:10010000FE010E943408C136D107C9F70E943C069F
:100110000C943F080C94000085ED8093BC00809106
:10012000BC0084FDFCCF1092E30108954091BD0115
:10013000262F30E0240F311D21323105DCF42091CF
:10014000E3012430C9F4FC0180E090E0861758F404
:100150003091BD012191DC01A556BE4FA30FB11D09
:100160002C930196F3CF8091BD01680F6093BD0180
:1001700080E0089581E0089582E00895089508954B
:100180000895E091980180919701E81730F4F0E02C
:10019000E958FE4F808190E008958FEF9FEF08951A
:1001A0009091980180919701981750F4E92FF0E011
:1001B000E958FE4F208130E09F5F9093980102C084
:1001C0002FEF3FEFC90108958091970190E02091B2
:1001D0009801821B91090895CF92DF92EF92FF92CE
:1001E0000F931F93CF93DF937C01CB018A01209162
:1001F0007601222389F0EB016B01C40ED51ECC15CC
:10020000DD0569F06991D701ED91FC910190F081D4
:10021000E02DC7010995F3CF642F0E949600C80115
:10022000DF91CF911F910F91FF90EF90DF90CF90D2
:100230000895CF93DF931F92CDB7DEB769832091E6
:1002400076012223D1F020919901203240F021E063
:1002500030E0FC013383228380E090E015C0809180
:100260009A01E82FF0E0EA5AFE4F998190838F5F60
:1002700080939A018093990105C061E0CE010196B7
:100280000E94960081E090E00F90DF91CF91089559
:10029000833081F028F4813099F08230A1F0089504
:1002A0008730A9F08830B9F08430D1F48091800093
:1002B0008F7D03C0809180008F77809380000895A8
:1002C00084B58F7702C084B58F7D84BD08958091F9
:1002D000B0008F7703C08091B0008F7D8093B00015
:1002E0000895CF93DF93282F30E0F901E255FF4FB7
:1002F0008491F901E656FF4FD491F901EA57FF4F77
:10030000C491CC2389F081110E944801EC2FF0E0C8
:10031000EE0FFF1FE458FF4FA591B4918FB7F894EB
:10032000EC91ED2BEC938FBFDF91CF910895CF939C
:10033000DF93E0EBF0E08491ECE9F0E0D491E8E8C1
:10034000F0E0C491CC2391F081110E944801EC2F80
:10035000F0E0EE0FFF1FEE58FF4FA591B491EC9126
:10036000ED2381E090E021F480E002C080E090E0A5
:10037000DF91CF9108953FB7F89480915201909109
:100380005301A0915401B091550126B5A89B05C019
:100390002F3F19F00196A11DB11D3FBFBA2FA92F04
:1003A000982F8827820F911DA11DB11DBC01CD0181
:1003B00042E0660F771F881F991F4A95D1F708956D
:1003C0008F929F92AF92BF92CF92DF92EF92FF9265
:1003D0006B017C010E94BB014B015C01C114D10483
:1003E000E104F104F1F00E94BB01DC01CB018819AA
:1003F0009909AA09BB09883E9340A105B10570F38C
:1004000021E0C21AD108E108F10888EE880E83E0E5
:10041000981EA11CB11CC114D104E104F10419F708
:10042000DDCFFF90EF90DF90CF90BF90AF909F9087
:100430008F900895CF92DF92EF92FF920F931F93C8
:10044000CF93DF936C017A018B01C0E0D0E0CE1531
:10045000DF0581F0D8016D918D01D601ED91FC9100
:100460000190F081E02DC6010995892B11F02196AC
:10047000EECF7E01C701DF91CF911F910F91FF90C9
:10048000EF90DF90CF900895FC01538D448D252F80
:1004900030E0842F90E0821B930B541710F0CF961E
:1004A000089501970895FC01918D828D981761F050
:1004B000828DDF01A80FB11D5D968C91928D9F5F9B
:1004C0009F73928F90E008958FEF9FEF0895FC0146
:1004D000918D828D981731F0828DE80FF11D858DF9
:1004E00090E008958FEF9FEF0895FC01918D228D8C
:1004F000892F90E0805C9F4F821B91098F73992711
:10050000089585E192E00E94750221E0892B09F4AB
:1005100020E0822F0895FC01848DDF01A80FB11D1A
:10052000A35ABF4F2C91848D90E001968F73992729
:10053000848FA689B7892C93A089B1898C91837007
:1005400080648C93938D848D981306C00288F38900
:10055000E02D80818F7D80830895EF92FF920F932D
:100560001F93CF93DF93EC0181E0888F9B8D8C8D5F
:10057000981305C0E889F989808185FD26C0F62E8B
:100580000B8D10E00F5F1F4F0F731127E02E8C8D26
:10059000E8120CC00FB607FCFACFE889F989808110
:1005A00085FFF5CFCE010E948B02F1CF8B8DFE012E
:1005B000E80FF11DE35AFF4FF0829FB7F8940B8FBD
:1005C000EA89FB89808180620AC09FB7F894EE892E
:1005D000FF896083E889F9898081837080648083E2
:1005E0009FBF81E090E0DF91CF911F910F91FF902D
:1005F000EF900895CF93DF93EC01888D8823C9F0A5
:10060000EA89FB89808185FD05C0A889B9898C911B
:1006100086FD0FC00FB607FCF5CF808185FFF2CFB6
:10062000A889B9898C9185FFEDCFCE010E948B02FC
:10063000E7CFDF91CF91089580E090E0892B29F0FA
:100640000E94810281110C9400000895CF93FC0157
:10065000C48121E020937601C093480110929A0151
:10066000109299018385682B89E092E00E9419011C
:1006700090919901913208F045C08091E301811178
:10068000FCCF82E08093E30181E08093E5018FEF6E
:100690008093E2011092070290930602A6E5B1E072
:1006A000E6EEF1E080E0981721F02D9121938F5F25
:1006B000FACF1092080280910802CC0FC82BC09389
:1006C00008028091E401813061F41092E40180918C
:1006D00008028093BB008091BC0083FDF8CF85ECBD
:1006E00001C085EE8093BC008091E3018230E1F38C
:1006F0008091E2018F3F31F08091E201803211F070
:100700008091E20110929A01109299011092760163
:10071000CF9108950F931F93CF938C01C62F0E9402
:1007200026036C2F6460C8010E9426036C2F6B7F28
:10073000C8010E94260383EC90E00197F1F7CF9166
:100740001F910F9108950F931F93CF93DF938C0107
:10075000C62FD42F607F642B0E948A0380E1C89F3C
:10076000B00111246D2BC801DF91CF911F910F9122
:100770000C948A0341E00E94A30381E090E0089575
:10078000089580E090E008950E943A08611571058F
:1007900079F0FB0101900020E9F73197AF01461B8A
:1007A000570BDC01ED91FC910280F381E02D09945F
:1007B00080E090E008958F929F92AF92BF92EF9267
:1007C000FF920F931F93CF93DF93CDB7DEB7A1971F
:1007D0000FB6F894DEBF0FBECDBF7C01FA01CB018E
:1007E00019A2223008F42AE08E010F5D1F4F822EDD
:1007F000912CA12CB12CBF01A50194010E941208DB
:10080000F901CA01015011096A3014F4605D01C098
:10081000695CD8016C93232B242B252B61F7B8013D
:10082000C7010E94C603A1960FB6F894DEBF0FBEA3
:10083000CDBFDF91CF911F910F91FF90EF90BF90AF
:10084000AF909F908F9008951F920F920FB60F92C6
:1008500011242F933F934F935F936F937F938F93C5
:100860009F93AF93BF93EF93FF938091B900887FDD
:10087000803609F49CC068F5883209F45BC090F4B6
:10088000803109F454C038F4882309F4F6C0883064
:1008900009F44DC0F6C0883109F44CC0803209F427
:1008A0005DC0EFC0803409F468C048F4803309F4B7
:1008B00055C0883309F0E5C08093E201D8C0803587
:1008C00009F44FC0883509F45DC0883409F0D9C0F7
:1008D000D6C0883909F4C7C0A8F4883709F467C0BE
:1008E00038F4883609F463C0803709F460C0C9C0A1
:1008F000883809F4B8C0803909F45FC0803809F03D
:10090000C0C05BC0803B09F486C038F4803A09F46B
:1009100066C0883A09F47FC0B4C0803C09F4A7C01F
:10092000883C09F4A4C0883B09F48AC0AAC080911D
:10093000080210C09091070280910602981770F586
:10094000E091070281E08E0F80930702F0E0EA5108
:10095000FE4F80818093BB0085EC86C08093E201CE
:100960008EC0E091070281E08E0F80930702809194
:10097000BB00F0E0EA51FE4F808390910702809126
:1009800006026EC0E091070281E08E0F809307029D
:100990008091BB00F0E0EA51FE4F80838091E50139
:1009A00081116DC081E08093E40184EA61C083E03D
:1009B0008093E3011092E101CFCF8091E101803279
:1009C00008F051C0E091E10181E08E0F8093E101D8
:1009D0008091BB00F0E0EF53FE4F8083BDCF85ECEC
:1009E0008093BC001092E3018091E101803230F4E9
:1009F000E091E101F0E0EF53FE4F10826091E101E0
:100A000070E0E091BF01F091C00181EC91E00995A7
:100A10001092E10136C084E08093E3011092BE01A0
:100A20001092BD01E091BB01F091BC01099580914C
:100A3000BD01811105C081E08093BD0110929B0131
:100A4000E091BE0181E08E0F8093BE01F0E0E5569B
:100A5000FE4F80818093BB009091BE018091BD01CB
:100A6000981708F479CF85E88093BC000AC085EC1C
:100A70008093BC001092E30104C01092E2010E9436
:100A80008C00FF91EF91BF91AF919F918F917F91DA
:100A90006F915F914F913F912F910F900FBE0F90EB
:100AA0001F9018951F920F920FB60F9211242F933B
:100AB0003F938F939F93AF93BF9380914E019091FB
:100AC0004F01A0915001B091510130914D0123E0AF
:100AD000230F2D3720F40196A11DB11D05C026E876
:100AE000230F0296A11DB11D20934D0180934E014D
:100AF00090934F01A0935001B09351018091520106
:100B000090915301A0915401B09155010196A11DFE
:100B1000B11D8093520190935301A0935401B0935F
:100B20005501BF91AF919F918F913F912F910F9060
:100B30000FBE0F901F9018951F920F920FB60F9235
:100B400011242F933F934F935F936F937F938F93D2
:100B50009F93AF93BF93EF93FF9385E192E00E9441
:100B60008B02FF91EF91BF91AF919F918F917F91F8
:100B70006F915F914F913F912F910F900FBE0F900A
:100B80001F9018951F920F920FB60F9211242F935A
:100B90008F939F93EF93FF93E0912502F0912602AC
:100BA0008081E0912B02F0912C0282FD12C0908195
:100BB00080912E028F5F8F7320912F02821751F048
:100BC000E0912E02F0E0EB5EFD4F958F80932E02B8
:100BD00001C08081FF91EF919F918F912F910F9094
:100BE0000FBE0F901F901895E9E0F2E01382128279
:100BF00088EE93E0A0E0B0E084839583A683B7837A
:100C00002CE031E031832083E5E1F2E013821282AF
:100C100084839583A683B7838EE191E0918380835B
:100C200085EC90E09587848784EC90E097878687B1
:100C300080EC90E0918B808B81EC90E0938B828BA9
:100C400082EC90E0958B848B86EC90E0978B868B82
:100C5000118E128E138E148EE2EBF2E0138212824A
:100C600080E391E09183808387E2848380E18187C0
:100C700082E0828713860895CF93DF93CDB7DEB7E6
:100C800028970FB6F894DEBF0FBECDBF789484B519
:100C9000826084BD84B5816084BD85B5826085BD78
:100CA00085B5816085BD80916E00816080936E0006
:100CB00010928100809181008260809381008091F8
:100CC00081008160809381008091800081608093A9
:100CD00080008091B10084608093B1008091B00069
:100CE00081608093B00080917A00846080937A0064
:100CF00080917A00826080937A0080917A0081608E
:100D000080937A0080917A00806880937A001092B4
:100D1000C100ECE9F0E02491E8E8F0E08491882358
:100D200099F090E0880F991FFC01E859FF4FA591B9
:100D3000B491FC01E458FF4F859194918FB7F894DA
:100D4000EC91E22BEC938FBF1092980110929701D7
:100D500010929A01109299011092E30181E0809320
:100D6000E5011092E40182E10E94710183E10E9499
:100D700071018091B9008E7F8093B9008091B90094
:100D80008D7F8093B90088E48093B80085E48093D8
:100D9000BC008EEB90E09093BC018093BB018FEB85
:100DA00090E09093C0018093BF011092B7028091B0
:100DB000BC02823018F098E09093B7028093BA0298
:100DC00062E370E080E090E00E94E0016091BD028B
:100DD00082EB92E00E94260368EE73E080E090E0F0
:100DE0000E94E00160E382EB92E00E948A030BE440
:100DF00016E4C8010197F1F760E382EB92E00E94EC
:100E00008A03C8010197F1F760E382EB92E00E9448
:100E10008A0383E592E00197F1F760E282EB92E0CA
:100E20000E948A036091B702606240E082EB92E028
:100E30000E94A30384E08093B80240E06CE082EB60
:100E400092E00E94A30340E061E082EB92E00E9406
:100E5000A3030BE31FE1C8010197F1F782E0F82E2D
:100E6000F092B90240E066E082EB92E00E94A303B8
:100E700040E062E082EB92E00E94A303C801019788
:100E8000F1F788E08093BD0260E082EB92E00E947F
:100E90002603E0912502F0912602F082E0912102E2
:100EA000F09122021082E0912302F09124028FEC53
:100EB000808310922D02E0912902F0912A0286E0AF
:100EC0008083E0912702F0912802808180618083F5
:100ED000E0912702F0912802808188608083E09170
:100EE0002702F0912802808180688083E0912702A8
:100EF000F091280280818F7D808301E010E0C09016
:100F00004B01D0904C010D2C000CEE08FF08F7FEB1
:100F10000EC06DE285E192E00E94AD0244275527A4
:100F2000BA014C195D096E097F092AE003C02AE065
:100F3000B701A60185E192E00E94DB030E949701C0
:100F4000019709F057C08091490190914A01892B7E
:100F500009F050C080914B0190914C010196909303
:100F60004C0180934B0188E0E0E0F1E0DE01119656
:100F700001900D928A95E1F78091BA0281114BC0E0
:100F80008FEFFE013196E80FF11DE80FF11D608132
:100F9000606840E082EB92E00E94A30368E371E0A6
:100FA00082EB92E00E94C603C0904B01D0904C01AE
:100FB0000D2C000CEE08FF08F7FE29C041E06DE2A1
:100FC00082EB92E00E94A30344275527BA014C19F3
:100FD0005D096E097F092AE082EB92E00E94DB0343
:100FE00065E471E082EB92E00E94C60310934A012F
:100FF000009349010E949701892B31F480914901A6
:1010000090914A01019749F00E941C0378CF2AE091
:10101000B701A601E1CF81E0B4CF10924A0110924E
:101020004901F2CFA1E21A2EAA1BBB1BFD010DC084
:10103000AA1FBB1FEE1FFF1FA217B307E407F50788
:1010400020F0A21BB30BE40BF50B661F771F881F64
:10105000991F1A9469F760957095809590959B01FA
:10106000AC01BD01CF010895EE0FFF1F0590F49173
:10107000E02D099481E090E0F8940C943F08F894F6
:02108000FFCFA0
:101082000000400014005400000000001901EC00B0
:10109200C103C000E400D000C10000000000AD02A6
:1010A2001A024402FA0275025302670200000000AB
:1010B200BA031A02C103C00342746E2050726573F0
:0810C2007365733A0020200061
:00000001FF
